:030000000208A251
:0C08A200787FE4F6D8FD75811702083F4E
:10087600EF1FAA0670011E4A600FE4FDEDC39478CF
:090886007480948050EA0D80F3A7
:01088F002246
:100800008E0E8F0FC3E50F9410E50E648094805018
:1008100003EF8005E50FC454F0F4120890C3ED9483
:1008200010EC648094805009AB15AA16A917ED80CE
:0F0830000AEDC454F0AB15AA16A91712089022AE
:10083F00750800750901750A00750B0175150075AE
:10084F00160075170D7B007A00790CAD0BAC0AAF53
:10085F0009AE08120800E50CF4F580850D907F6451
:05086F007E0012087676
:0208740080C939
:10089000BB010689828A83F0225002F722BBFE0147
:0208A000F32241
:00000001FF
