:0300000002127376
:0C127300787FE4F6D8FD75814B0211C6AF
:1012350000FE00FD00FB00F700EF00DF00BF007FB0
:1012450000FE00FD00FB00F700EF00DF00BF007FA0
:0412550000FE00FF98
:10125900EF1FAA0670011E4A600FE4FDEDC39478E2
:091269007480948050EA0D80F3BA
:011272002259
:0A1135008E278F288B298A2A892B28
:10113F00782C7C007D007BFF7A1279357E007F1042
:10114F00120D1EAC27AD28E41209ABE4FBFA794867
:10115F007842120909E4F545F544F54375423F120B
:10116F000EF1E4FBFA798078411208001209E48E3F
:10117F003C8F3DC3E53D9408E53C9400AB295010EE
:10118F00AA2AA92B120D44FFE53D25E0242C80133C
:10119F00E52B2402F9E4352AFA120D44FFE53D252B
:1011AF00E0241CF8E6FC08E6FDE5F05CFEEF5DFFD1
:0611BF00EE8FF0120D6F2F
:0111C5002207
:0A10A2008E278F288B298A2A892BBC
:1010AC00782C7C007D007BFF7A1279457E007F10C6
:1010BC00120D1EAC27AD28E41209ABE4FBFA7948FB
:1010CC007842120909E4F545F544F543754240129E
:1010DC000EF1E4FBFA798078411208001209E48ED3
:1010EC003C8F3DC3E53D9408E53C9400AB29501082
:1010FC00AA2AA92B120D44FFE53D25E0242C8013D0
:10110C00E52B2402F9E4352AFA120D44FFE53D25BE
:10111C00E0241CF8E6FC08E6F4FDECF445F0FEEFE8
:08112C004DFFEE8FF0120D6F74
:011134002298
:1011C60078217C007D007BFF7A1279557E007F04B2
:1011D600120D1E752500752601852280852490D363
:1011E600E5269432E525940050317F327E001212B6
:1011F600597B007A007921AF26AE251211357B0086
:101206007A007921AF26AE251210A2852280852488
:10121600900526E52670C8052580C475210075222F
:0F122600FE7523007524FF75250075260180AA2B
:10080000EC4D6011E8497017ED33EC3304600DE4F2
:10081000FCFFFEFD22E933E8330470F8020A5012AF
:100820000A1B58046009E4CC2481500628500902B0
:100830000A5A284003020A57C0E0EB4A7044B980C4
:1008400006D0E0FB020A46EF4E701CBD8008EBFFAD
:10085000EAFEE9FD80EBE98DF0A4FEE5F00208E98F
:10086000E9CDF9EAFEEBFFEF89F0A4FCE5F0CE89D3
:10087000F0A42EFFE435F0CD89F0A42DFEE435F090
:100880008067EF4E7005BD80D780C3EF8BF0A4ACBE
:10089000F0EE8BF0A42CFCE435F0F8EF8AF0A42CF9
:1008A000E5F038FCE433CB8DF0A42CFCE5F03BF80C
:1008B000EE8AF0A42CFCE5F038F8E433CF89F0A4FC
:1008C0002CFCE5F038CF3400CE89F0A42FFFE5F002
:1008D0003EFEE433C98DF0A42EFEE5F039CD8AF05A
:1008E000A42FFFE5F03EFEE43DFD33D0E0FB5007D2
:1008F0000BBB000F020A5AEC2CFCEF33FFEE33FE69
:06090000ED33FD020A3296
:10090600020A5AEC5D046005E859047003020A50B5
:10091600120A1B580460F6EC4860F2EC7004FDFE07
:10092600FF22C860DB2481C85009C39860025006C4
:10093600020A579850CAF582E9294B4A7005AB82DC
:10094600020A4675F0007C1A7880C3EF9BEE9AED9A
:1009560099400DC3EF9BFFEE9AFEED99FDE842F03C
:10096600DC23ACF0D0E0FFD0E0FED0E0FDAB82208F
:10097600E7101BEB60BAEC2CFCEF33FFEE33FEED19
:1009860033FD020A32E803F830E705C0F075F000DF
:10099600EF2FFFEE33FEED33FD40B830E7C280AAFD
:1009A60075F020800E75F010800575F0087D007ECC
:1009B600007F003392D530D503120D8EEC334010F4
:1009C600EF33FFEE33FEED33FDEC33FCD5F0ED22D5
:0E09D600E5F0247EA2D513CC92E7CDCEFF2211
:1009E400EDD2E7CD33EC3392D524814006E4FFFE0B
:1009F400FDFC22FCE4CFCECDCC24E0501174FF806A
:100A0400EDC3CC13CCCD13CDCE13CECF13CF047006
:070A1400F030D5DE020D8E6B
:100EF1008F418E408D3F8C3EE4FFFE7D807C3FAB79
:100F010041AA40A93FA83E120B777009AF41AE40FC
:100F1100AD3FAC3E22AF41AE40AD3FAC3E120A65A3
:100F2100FBAF45AE44AD43AC42120A65FFBF0108B9
:100F3100E4FFFE7D807C3F22EF64046022EB6404C9
:100F4100601DBB0127E4FFFEFDFCAB45AA44A9439C
:100F5100A842120B7760084006E4FFFEFDFC2274F4
:100F6100FFF545F544F543F542020FFFE4F546F57B
:100F710047FFFEFDFCAB41AA40A93FA83E120B77FB
:100F8100504BAF45AE44AD43AC421209E48E468F9F
:100F910047AC46AD47EC1209ABC8ECC8C9EDC9CAAC
:100FA100EECACBEFCBAF45AE44AD43AC42120A82A1
:100FB100E4FBFAF9F8120B7770A5AF41AE40AD3FF3
:100FC100AC3E120BF08F418E408D3F8C3EAF41AE57
:100FD10040AD3FAC3E120DF0AB45AA44A943A84237
:100FE1001208001210408F458E448D438C42E54714
:100FF10030E00B120BF08F458E448D438C42AF4590
:07100100AE44AD43AC4222F6
:100A1B00E9D2E7C933E833F892D5EDD2E7CD33EC21
:070A2B0033FC5002B2D5229A
:100A3200EC30E7100FBF000C0EBE00080DBD000425
:100A42000BEB6014A2D5EB13FCED92E7FD2274FFD1
:100A5200FCFDFEFF22E480F8A2D574FF13FC7D802A
:030A6200E480EF3E
:100A6500ED33EC33601004700FED547F70057402A4
:0A0A750092E0227404220422E4221D
:100A7F00020A50E86480F8E933E83360110460F04B
:100A8F00ED33EC337009E8FCE9FDEAFEEBFF2204DD
:100A9F0060DED3EB9FEA9EE99DE8C2E78CF0C2F7D8
:100AAF0095F0400CE8CCF8E9CDF9EACEFAEBCFFBA4
:100ABF00120A1B85D0F05804700320D5B3E80470D8
:100ACF00075002B2D5020A5A92D5EC0460F7E4CC73
:100ADF00C0E0C398F8603B94186008400DD0E0FB6D
:100AEF00020A32E4FBFAC9FC8028E830E406E4C9C4
:100AFF00FBE4CAFCE830E305E4C9CACBFCE85407C1
:100B0F006010F8C3E913F9EA13FAEB13FBEC13FCCB
:100B1F00D8F130F52FC3E49CFCEF9BFFEE9AFEED6E
:100B2F0099FDD0E0FBEF4E4D4C701222DB03020A11
:100B3F0057EC2CFCEF33FFEE33FEED33FDED30E7DA
:100B4F00EB020A32EF2BFFEE3AFEED39FDD0E0FB60
:100B5F0050130BBB0003020A5AED13FDEE13FEEF09
:080B6F0013FFEC13FC020A3233
:100B770074F8CC6480CCC86480C8F58204604FC325
:100B8700EB9FF5F0EA9E42F0E99D42F0E89C45F0C4
:100B9700603C501DE5825FFFE582D313CB5BCBF44E
:100BA7002B5582FB50280ABA002409B90020088077
:100BB7001DE5825BFBE582D313CF5FCFF4C3132F11
:100BC7005582FF50090EBE00050DBD00010CC3EB99
:100BD7009FF5F0EA9E42F0E99D42F0E89C45F060FF
:090BE70007CC4820E701B3EC2221
:100BF000ED33EC33600A047003BD8004ECB2E7FC13
:010C000022D1
:1010080033DA929E35B16011377FE5FE3921848944
:101018003AAEC3FF3C1D955B3D6358473E75FDF0F6
:101028003F3172183F800000C2D5020A5A020A50A6
:10103800BD80FA50F3020A57ED33EC330460F17BBC
:101048003B7AAA79B8783F120800ED33EC3392D591
:10105800247B5011A2D570DB500BED448024045042
:1010680004A2D580CEEFFBEEFAEDF9ECF81209E414
:10107800EFF582F404FC1209B0120A86C0829010BF
:10108800087409120C10ED33CC33D0F092D525F04A
:0A109800A2D57001C313CC13FD2292
:100DBC003E9248DA3ECCCCCD3F2AAAAB4000000094
:100DCC003F8000003F9837F03FB504F33FD744FC19
:100DDC003E3172173EB172173F0515913EDE5BD95D
:100DEC00D2008002C200EDD2E7F8CD33EC330470B0
:100DFC000BBD800592D5020A5A020A5040FBD3144F
:100E0C0060F2F5F07C3FEE7A00C39496C8948B4068
:100E1C00230AC89469C8941A401A0AC89468C894DA
:100E2C001F40110AC8945AC89425400805F07A004E
:100E3C00CDC2E7CDC0F08C488D498E4A8F4BEA234A
:100E4C0023C0E024CCF582E4340DF583120DAC12F2
:100E5C000A86ECC0E0EDC0E0EEC0E0EFC0E0120DA1
:100E6C009CA848A949AA4AAB4B120A82D0E0FBD0F5
:100E7C00E0FAD0E0F9D0E0B2E7F81209098C488D1D
:100E8C00498E4A8F4B900DBC7403120C01A848A9D3
:100E9C0049AA4AAB4B120800D0E0600F24D8F58267
:100EAC00E4340DF583120DAC120A868C488D498EF4
:100EBC004A8F4BD0E0C3947FFDE49400FC1209AB45
:100ECC007B187A727931783F120800A848A949AA90
:100EDC004AAB4B120A8630000B7BD97A5B79DE78F1
:050EEC003E1208002287
:100C0100C0E0EFFBEEFAEDF9ECF8120800D0E0F5E8
:100C1100F0EFFBEEFAEDF9ECF8120D9CA3A3A3A300
:100C2100E8C0E0E9C0E0EAC0E0EBC0E0C0F01208D3
:100C310000120DACA3A3A3A3120A86D0F0D0E0FB4F
:0D0C4100D0E0FAD0E0F9D0E0F8D5F0D422F0
:100C4E00E709F608DFFA8046E709F208DFFA803E88
:100C5E0088828C83E709F0A3DFFA8032E309F60875
:100C6E00DFFA8078E309F208DFFA807088828C83DD
:100C7E00E309F0A3DFFA806489828A83E0A3F60891
:100C8E00DFFA805889828A83E0A3F208DFFA804C6B
:100C9E0080D280FA80C680D4806980F28033801042
:100CAE0080A680EA809A80A880DA80E280CA8033AB
:100CBE0089828A83ECFAE493A3C8C582C8CCC58323
:100CCE00CCF0A3C8C582C8CCC583CCDFE9DEE780F3
:100CDE000D89828A83E493A3F608DFF9ECFAA9F072
:100CEE00EDFB2289828A83ECFAE0A3C8C582C8CCC8
:100CFE00C583CCF0A3C8C582C8CCC583CCDFEADEE1
:100D0E00E880DB89828A83E493A3F208DFF980CC42
:100D1E0088F0EF60010E4E60C388F0ED2402B4043B
:100D2E000050B9F582EB2402B4040050AF232345E2
:060D3E008223900C9E735D
:100D4400BB010A89828A83E0F5F0A3E0225006877A
:100D5400F009E71922BBFE07E3F5F009E31922893C
:0B0D6400828A83E493F5F0740193226F
:100D6F00BB010A89828A83F0E5F0A3F0225006F7CF
:0F0D7F0009A7F01922BBFE06F3E5F009F31922CC
:0E0D8E00C3E49FFFE49EFEE49DFDE49CFC2276
:100D9C00E493FC740193FD740293FE740393FF229D
:100DAC00E493F8740193F9740293FA740393FB229D
:00000001FF
