:03000000020800F3
:0C080000787FE4F6D8FD758147020847B8
:10088C0020400800000000000000000300000001F0
:10089C0003037FFFBFFDF5F4F070000000000000C3
:1008AC0000000008080A0A0A080808C8E07078FF67
:1008BC00F9F8FFF1E0088808080808080A0A0A0A8B
:0308CC0008080811
:10090A00EF1FAA0670011E4A600FE4FDEDC394783A
:09091A007480948050EA0D80F312
:0109230022B1
:1008D000E4FBF9E4FCECC394107480948050F4ECD5
:1008E000540FFBC454F0F94BF59074082CF8E6F45F
:1008F000F58074282CF8E6F4F5A07F047E00120938
:0A0900000A7580FF75A0FF0C80CB84
:10080C000208D0E493A3F8E493A34003F68001F22A
:10081C0008DFF48029E493A3F85407240CC8C333ED
:10082C00C4540F4420C8834004F456800146F6DFBC
:10083C00E4800B010204081020408090088CE47EB8
:10084C00019360BCA3FF543F30E509541FFEE493B1
:10085C00A360010ECF54C025E060A840B8E493A378
:10086C00FAE493A3F8E493A3C8C582C8CAC583CAA3
:10087C00F0A3C8C582C8CAC583CADFE9DEE780BE5B
:0108CF000028
:00000001FF
