:03000000020AB63B
:0C0AB600787FE4F6D8FD75812B020A79E8
:0D0AA9002346555F51494E474348454E00D6
:100A0100EF1FAA0670011E4A600FE4FDEDC3947842
:090A11007480948050EA0D80F31A
:010A1A0022B9
:100A8B00C2A2C2A0D2A1D2A2AF90EF20E7F2C2A223
:010A9B002238
:100A1B00AE07120A8BC2A0C2A1C2A28E90D2A200B4
:090A2B00C2A27F017E00020A0153
:100A3400AE07120A8BD2A0C2A1C2A28E90D2A2008B
:090A4400C2A27F017E00020A013A
:100A4D007F38120A1B007F0C120A1B007F04120A4A
:070A5D001B007F01020A1BD0
:1008F9007F01120A1B7F057E00120A017BFF7A0A1B
:0A09090079A975250075260C7F8280
:060913008B228A238924D7
:10091900120A1B7F057E00120A01E4F527F528C398
:10092900E5289526E5279525501DAB22AA23A9245C
:10093900852882852783120951FF120A340528E583
:070949002870DC052780D8AF
:010950002284
:040800008E298F2A84
:10080400C3E52A940AE52964809480502BEF2430B0
:10081400F52B7B007A007908120A64C3EF9410EE7A
:100824009400504C751B00751C00751D2B7B007AC1
:100834000079081209A98038E52A640A452970223A
:100844001208F97B007A007908120A6474072FF8F9
:10085400E4F6FB7A007908120A6474082FF8E4F6C7
:10086400800EE4F5081208F9007FF47E01120A01F3
:100874007B007A007908120A648E258F267B007A21
:0F0884000079087FC01209137F057E00020A0168
:0D0A9C007F32120900007F647E00020A0113
:1008930075800FAF80EF640F605B7F0A7E00120AE2
:1008A30001AF80EF640F604DE580F4540FF52375BD
:1008B30080EF752410E4F521F522A2D5E433FFADD2
:1008C30080ED4F64FE600122AF807801EF08800164
:1008D30023D8FDF580AF247801EF08800123D8FDEC
:1008E300F5240522E52270020521C39403E5216462
:0508F30080948040C567
:0108F80022DD
:100A7900120A4D120A9C1208937F647E00120A0121
:020A890080F1FA
:10095100BB010CE58229F582E5833AF583E022505B
:1009610006E92582F8E622BBFE06E92582F8E222A5
:0D097100E58229F582E5833AF583E49322BF
:1009A9008B188A19891A8B1E8A1F8920AB18051A78
:1009B900E51AAA197002051914F912097E70ED7465
:1009C900FF251AF51A74FF3519F519AB1B051DE535
:1009D9001DAA1C7002051C14F912097EFFAB18052B
:1009E9001AE51AAA197002051914F9EF1209977074
:0809F900DAAB1EAA1FA920229F
:100A6400E4FFFE12097E600C0FEF70010E09E970BD
:050A7400F20A80EF22F0
:10097E00BB010689828A83E0225002E722BBFE0277
:09098E00E32289828A83E49322AA
:10099700BB010689828A83F0225002F722BBFE013F
:0209A700F32239
:00000001FF
