:03000000020B767A
:0C0B7600787FE4F6D8FD758128020B3969
:0D0B69002346555F51494E474348454E0015
:100AC100EF1FAA0670011E4A600FE4FDEDC3947882
:090AD1007480948050EA0D80F35A
:010ADA0022F9
:100A9F00E4FCECC39432748094805015C2B77F018C
:100AAF007E00120AC1D2B77F017E00120AC10C80EC
:010ABF00E155
:010AC0002213
:100B4B00C2A2C2A0D2A1D2A2AF90EF20E7F2C2A262
:010B5B002277
:100ADB00AE07120B4BC2A0C2A1C2A28E90D2A20033
:090AEB00C2A27F017E00020AC1D3
:100AF400AE07120B4BD2A0C2A1C2A28E90D2A2000A
:090B0400C2A27F017E00020AC1B9
:100B0D007F38120ADB007F0C120ADB007F04120A09
:070B1D00DB007F01020ADB8F
:1009EF007F01120ADB7F057E00120AC17BFF7A0BA3
:0A09FF00796975140075150C7F82EC
:060A09008B118A12891313
:100A0F00120ADB7F057E00120AC1E4F516F517C343
:100A1F00E5179515E5169514501DAB11AA12A913DC
:100A2F00851782851683120971FF120AF40517E5DF
:070A3F001770DC051680D8DA
:010A4600228D
:0408DE008E0D8F0EDE
:1008E200C3E50E940AE50D64809480502BEF24300A
:1008F200F50F7B007A007919120B24C3EF9410EEE6
:100902009400504C75130075140075150F7B007A16
:10091200007919120A478038E50E640A450D7022E3
:100922001209EF7B007A007919120B2474182FF840
:10093200E4F6FB7A007919120B2474192FF8E4F605
:10094200800EE4F5191209EF007FF47E01120AC14C
:100952007B007A007919120B248E148F157B007A92
:0F0962000079197FC0120A097F057E00020AC1C1
:0D0B5C007F321209F6007F647E00020AC19C
:1008000075800FAF80EF640F70030208DDE5804450
:10081000F0F470030208DD120A9FE580F4540FF52E
:100820000A750CEF750B10E4F508F509850C80E5E9
:100830008044F0F46077E50A450B12099E086A11BE
:10084000087C12088E1408A018087021088222085B
:100850009424086528087641088842089A4408A626
:1008600048000008DDE4FFFE80407F017E00803A02
:100870007F027E0080347F037E00802E7F047E0016
:1008800080287F057E0080227F067E00801C7F07F7
:100890007E0080167F087E0080107F097E00800A1F
:1008A0007F0A7E0080047F0B7E000208DEAF0C789A
:1008B00001EF08800123D8FDF50CAF0B7801EF089C
:1008C000800123D8FDF50B0509E50970020508C371
:0D08D0009403E50864809480500302082C16
:0108DD0022F8
:100B3900120B0D120B5C1208007F647E00120AC1B1
:020B490080F139
:10097100BB010CE58229F582E5833AF583E022503B
:1009810006E92582F8E622BBFE06E92582F8E22285
:0D099100E58229F582E5833AF583E493229F
:10099E00D083D082F8E4937012740193700DA3A3E8
:1009AE0093F8740193F5828883E4737402936860FC
:0609BE00EFA3A3A380DFFC
:100A47008B108A1189128B168A178918AB10051219
:100A5700E512AA117002051114F91209C470ED7498
:100A6700FF2512F51274FF3511F511AB130515E5C6
:100A770015AA147002051414F91209C4FFAB100566
:100A870012E512AA117002051114F9EF1209DD70AF
:080A9700DAAB16AA17A9182218
:100B2400E4FFFE1209C4600C0FEF70010E09E970B6
:050B3400F20A80EF222F
:1009C400BB010689828A83E0225002E722BBFE0231
:0909D400E32289828A83E4932264
:1009DD00BB010689828A83F0225002F722BBFE01F9
:0209ED00F322F3
:00000001FF
