:03000000020A6A87
:0C0A6A00787FE4F6D8FD75812102096850
:1009B4002346555F51494E474348454E0035363628
:1009C4003738003000000000000000000000000084
:0309D40000000020
:0709D7001209F87F057E0004
:1009DE00EF1FAA0670011E4A600FE4FDEDC3947866
:0909EE007480948050EA0D80F33E
:0109F70022DD
:100A5900C2A2C2A0D2A1D2A2AF90EF20E7F2C2A255
:010A6900226A
:1009F800AE07120A59C2A0C2A1C2A28E90D2A2000A
:090A0800C2A27F017E000209DE9A
:100A1100AE07120A59D2A0C2A1C2A28E90D2A200E0
:090A2100C2A27F017E000209DE81
:100A42007F381209F8007F0C1209F8007F0412099E
:070A5200F8007F010209F822
:0E0923007BFF7A0979C1751E00751F057FC024
:060931008B1B8A1C891DCE
:100937001209D7E4F520F521C3E521951FE5209598
:100947001E501DAB1BAA1CA91D8521828520831261
:1009570008F6FF120A110521E52170DC052080D871
:01096700226D
:010A7600225D
:10098F007F011209F87F327E001209DE7BFF7A09A0
:10099F0079B4751E00751F0C7F82120931007FF428
:0509AF007E010209DEDB
:100A2A008E188F191209237FF47E011209DE12092A
:080A3A00237FF47E010209DEB6
:1009680078087C007D007BFF7A0979C77E007F10BC
:100978001208D0120A4212098F7F057E00120A2A35
:070988007F011209D780EF87
:10080000E709F608DFFA8046E709F208DFFA803EDA
:1008100088828C83E709F0A3DFFA8032E309F608C7
:10082000DFFA8078E309F208DFFA807088828C832F
:10083000E309F0A3DFFA806489828A83E0A3F608E3
:10084000DFFA805889828A83E0A3F208DFFA804CBD
:1008500080D280FA80C680D4806980F28033801094
:1008600080A680EA809A80A880DA80E280CA8033FD
:1008700089828A83ECFAE493A3C8C582C8CCC58375
:10088000CCF0A3C8C582C8CCC583CCDFE9DEE78045
:100890000D89828A83E493A3F608DFF9ECFAA9F0C4
:1008A000EDFB2289828A83ECFAE0A3C8C582C8CC1A
:1008B000C583CCF0A3C8C582C8CCC583CCDFEADE33
:1008C000E880DB89828A83E493A3F208DFF980CC95
:1008D00088F0EF60010E4E60C388F0ED2402B4048E
:1008E0000050B9F582EB2402B4040050AF23234535
:0608F00082239008507302
:1008F600BB010CE58229F582E5833AF583E02250B7
:1009060006E92582F8E622BBFE06E92582F8E22200
:0D091600E58229F582E5833AF583E493221A
:00000001FF
