:03000000020B559B
:0C0B5500787FE4F6D8FD758127020B18AC
:0D0B48002346555F51494E474348454E0036
:100AA000EF1FAA0670011E4A600FE4FDEDC39478A3
:090AB0007480948050EA0D80F37B
:010AB900221A
:100B2A00C2A2C2A0D2A1D2A2AF90EF20E7F2C2A283
:010B3A002298
:100ABA00AE07120B2AC2A0C2A1C2A28E90D2A20075
:090ACA00C2A27F017E00020AA015
:100AD300AE07120B2AD2A0C2A1C2A28E90D2A2004C
:090AE300C2A27F017E00020AA0FC
:100AEC007F38120ABA007F0C120ABA007F04120A6D
:070AFC00BA007F01020ABAF3
:1009F0007F01120ABA7F057E00120AA07BFF7A0BE4
:0A0A0000794875230075240C7F82ED
:060A0A008B208A218922E5
:100A1000120ABA7F057E00120AA0E4F525F526C366
:100A2000E5269524E5259523501DAB20AA21A92272
:100A3000852682852583120972FF120AD30526E5D1
:070A40002670DC052580D8BB
:010A4700228C
:0408DF008E1C8F1DBF
:1008E300C3E51D940AE51C64809480502BEF2430EB
:1008F300F51E7B007A007908120B03C3EF9410EE08
:100903009400504C75220075230075241E7B007AD9
:10091300007908120A488038E51D640A451C7022D4
:100923001209F07B007A007908120B0374072FF881
:10093300E4F6FB7A007908120B0374082FF8E4F647
:10094300800EE4F5081209F0007FF47E01120AA07C
:100953007B007A007908120B038E238F247B007AA5
:0F0963000079087FC0120A0A7F057E00020AA0F1
:0D0B3B007F321209F7007F647E00020AA0DD
:1008000075800FAF80EF640F70030208DE7F0F7EEC
:1008100000120AA0AF80EF640F70030208DEE580CB
:10082000F4540FF51A7580EF751B10E4F518F519DF
:10083000E58044F0F46077E51A451B12099F086BC8
:1008400011087D12088F1408A1180871210883224D
:10085000089524086628087741088942089B4408BF
:10086000A748000008DEE4FFFE80407F017E008094
:100870003A7F027E0080347F037E00802E7F047EDC
:100880000080287F057E0080227F067E00801C7FFE
:10089000077E0080167F087E0080107F097E008022
:1008A0000A7F0A7E0080047F0B7E000208DFAF8093
:1008B0007801EF08800123D8FDF580AF1B7801EFA8
:1008C00008800123D8FDF51B0519E51970020518EC
:0E08D000C39404E5186480948050030208303D
:0108DE0022F7
:100B1800120AEC120B3B1208007F647E00120AA036
:020B280080F15A
:10097200BB010CE58229F582E5833AF583E022503A
:1009820006E92582F8E622BBFE06E92582F8E22284
:0D099200E58229F582E5833AF583E493229E
:10099F00D083D082F8E4937012740193700DA3A3E7
:1009AF0093F8740193F5828883E4737402936860FB
:0609BF00EFA3A3A380DFFB
:100A48008B1F8A2089218B258A268927AB1F0521A0
:100A5800E521AA207002052014F91209C570ED7469
:100A6800FF2521F52174FF3520F520AB220524E56B
:100A780024AA237002052314F91209C5FFAB1F0528
:100A880021E521AA207002052014F9EF1209DE7071
:080A9800DAAB25AA26A92722EA
:100B0300E4FFFE1209C5600C0FEF70010E09E970D6
:050B1300F20A80EF2250
:1009C500BB010689828A83E0225002E722BBFE0230
:0909D500E32289828A83E4932263
:1009DE00BB010689828A83F0225002F722BBFE01F8
:0209EE00F322F2
:00000001FF
