:03000000020B5898
:0C0B5800787FE4F6D8FD758128020B1BA5
:0D0B4B002346555F51494E474348454E0033
:100AA300EF1FAA0670011E4A600FE4FDEDC39478A0
:090AB3007480948050EA0D80F378
:010ABC002217
:100B2D00C2A2C2A0D2A1D2A2AF90EF20E7F2C2A280
:010B3D002295
:100ABD00AE07120B2DC2A0C2A1C2A28E90D2A2006F
:090ACD00C2A27F017E00020AA30F
:100AD600AE07120B2DD2A0C2A1C2A28E90D2A20046
:090AE600C2A27F017E00020AA3F6
:100AEF007F38120ABD007F0C120ABD007F04120A64
:070AFF00BD007F01020ABDEA
:1009F3007F01120ABD7F057E00120AA37BFF7A0BDB
:0A0A0300794B75140075150C7F8205
:060A0D008B118A1289130F
:100A1300120ABD7F057E00120AA3E4F516F517C37B
:100A2300E5179515E5169514501DAB11AA12A913D8
:100A3300851782851683120975FF120AD60517E5F5
:070A43001770DC051680D8D6
:010A4A002289
:0408E2008E0D8F0EDA
:1008E600C3E50E940AE50D64809480502BEF243006
:1008F600F50F7B007A007919120B06C3EF9410EE00
:100906009400504C75130075140075150F7B007A12
:10091600007919120A4B8038E50E640A450D7022DB
:100926001209F37B007A007919120B0674182FF856
:10093600E4F6FB7A007919120B0674192FF8E4F61F
:10094600800EE4F5191209F3007FF47E01120AA362
:100956007B007A007919120B068E148F157B007AAC
:0F0966000079197FC0120A0D7F057E00020AA3D7
:0D0B3E007F321209FA007F647E00020AA3D4
:1008000075800FAF80EF640F70030208E17F0F7EE9
:1008100000120AA3E58044F0F470030208E1E580C9
:10082000F4540FF50A750CEF750B10E4F508F50993
:10083000850C80E58044F0F46077E50A450B1209E9
:10084000A2086E1108801208921408A418087421D6
:10085000088622089824086928087A41088C4208EA
:100860009E4408AA48000008E1E4FFFE80407F01A2
:100870007E00803A7F027E0080347F037E00802EDF
:100880007F047E0080287F057E0080227F067E0018
:10089000801C7F077E0080167F087E0080107F0905
:1008A0007E00800A7F0A7E0080047F0B7E000208A3
:1008B000E2AF0C7801EF08800123D8FDF50CAF0BF7
:1008C0007801EF08800123D8FDF50B0509E50970D3
:1008D000020508C39403E50864809480500302086D
:0108E00030E7
:0108E10022F4
:100B1B00120AEF120B3E1208007F647E00120AA32A
:020B2B0080F157
:10097500BB010CE58229F582E5833AF583E0225037
:1009850006E92582F8E622BBFE06E92582F8E22281
:0D099500E58229F582E5833AF583E493229B
:1009A200D083D082F8E4937012740193700DA3A3E4
:1009B20093F8740193F5828883E4737402936860F8
:0609C200EFA3A3A380DFF8
:100A4B008B108A1189128B168A178918AB10051215
:100A5B00E512AA117002051114F91209C870ED7490
:100A6B00FF2512F51274FF3511F511AB130515E5C2
:100A7B0015AA147002051414F91209C8FFAB10055E
:100A8B0012E512AA117002051114F9EF1209E170A7
:080A9B00DAAB16AA17A9182214
:100B0600E4FFFE1209C8600C0FEF70010E09E970D0
:050B1600F20A80EF224D
:1009C800BB010689828A83E0225002E722BBFE022D
:0909D800E32289828A83E4932260
:1009E100BB010689828A83F0225002F722BBFE01F5
:0209F100F322EF
:00000001FF
