:03000000020800F3
:0C080000787FE4F6D8FD758111020847EE
:0E094000080801030206040C0809021000005A
:0C09080074082511F8E6F5807F647E007D
:10091400EF1FAA0670011E4A600FE4FDEDC3947830
:090924007480948050EA0D80F308
:01092D0022A7
:030003000208CB25
:1008CB00C0E0C0D075D000C000C002C005C006C0DB
:1008DB00070511E51170020510C39408E51094008B
:1008EB0040067510007511001209087580FFD007BE
:0D08FB00D006D005D002D000D0D0D0E03221
:0300130002088C54
:10088C00C0E0C0D075D000C000C002C005C006C01A
:10089C0007E511151170021510D3E5119400E51040
:1008AC00940050067510007511071209087580FF29
:0F08BC00D007D006D005D002D000D0D0D0E03287
:10092E00D2AFD2A8D2AAC288C28AE4F5B8120910F0
:02093E0080FB3C
:10080C0002092EE493A3F8E493A34003F68001F2CB
:10081C0008DFF48029E493A3F85407240CC8C333ED
:10082C00C4540F4420C8834004F456800146F6DFBC
:10083C00E4800B0102040810204080900940E47E03
:10084C00019360BCA3FF543F30E509541FFEE493B1
:10085C00A360010ECF54C025E060A840B8E493A378
:10086C00FAE493A3F8E493A3C8C582C8CAC583CAA3
:10087C00F0A3C8C582C8CAC583CADFE9DEE780BE5B
:01094E0000A8
:00000001FF
